:1078000033C0000044C0000042C0000040C000007F
:107810003EC000003CC000003AC0000038C000007C
:1078200036C0000034C0000032C0000030C000008C
:107830002EC000002CC000002AC0000028C000009C
:1078400026C0000024C0000022C0000020C00000AC
:107850001EC000001CC000001AC0000018C00000BC
:1078600016C0000014C0000011241FBECFEFD8E0E6
:10787000DEBFCDBF11E0A0E0B1E0EAE7FCE702C067
:1078800005900D92A630B107D9F752D0F4C1B8CF08
:10789000239A2B9A2498089545E450E060E070E024
:1078A00020E490E01C99FECF0CD01C99FBCF0BD0AC
:1078B0001C9901C001C0806806D08695269539F0D4
:1078C000F7CF92E201C0942F9A95F1F708950895A9
:1078D0004EE350E060E070E020E098E02B980DD09F
:1078E000282F817011F02B9A02C02B980000822F54
:1078F000869503D09A95A1F704C0242F2A95F1F715
:1079000008952B9AFACF962FFB0160E070E08E2F3E
:10791000891B841720F48191680F711DF8CF81E0D5
:10792000F901208131816217730709F080E0089521
:10793000CF93DF9300D0CDB7DEB7A89514BEE0E6B5
:10794000F0E08081886180831082F894289A81E039
:1079500084B9289884E091E09A838983CE010196C6
:10796000B6D080E090E00F900F90DF91CF91089516
:10797000AF92BF92CF92DF92EF92FF920F931F933D
:10798000CF93DF938C01EB017B015B0180E2A80EBA
:10799000B11C6B0181DFD6018D936D01AA15BB056A
:1079A000C9F7F70181917F0193DFEA14FB04C9F75E
:1079B00080E28EDF80E28CDF80E28ADF7E01FEE102
:1079C000EF0EF11CD801ED91FC910190F081E02DBA
:1079D00097014EE1BE01C80109957ADFD801ED910A
:1079E000FC910190F081E02D97014EE1BE01C801AC
:1079F0000995882341F0219A95B182E0892785B9BC
:107A000081E090E002C082E090E0DF91CF911F9191
:107A10000F91FF90EF90DF90CF90BF90AF900895BF
:107A2000AF92BF92CF92DF92EF92FF920F931F938C
:107A3000CF93DF938C01EB017B015B0184E8A80EFF
:107A4000B11C6B0129DFD6018D936D01AA15BB0511
:107A5000C9F7F70181917F013BDFEA14FB04C9F705
:107A600080E236DF80E234DF80E232DF7E01F2E85E
:107A7000EF0EF11CD801ED91FC910190F081E02D09
:107A8000970142E8BE01C801099522DFD801ED91B6
:107A9000FC910190F081E02D970142E8BE01C80100
:107AA0000995882339F095B182E0892785B981E06D
:107AB00090E002C082E090E0DF91CF911F910F91A2
:107AC000FF90EF90DF90CF90BF90AF9008954F92CE
:107AD0005F926F927F928F929F92AF92BF92CF925E
:107AE000DF92EF92FF920F931F93CF93DF93CDB767
:107AF000DEB7C45AD1090FB6F894DEBF0FBECDBFB2
:107B00008C0143E0D42EBE016B577F4FC80130DF9C
:107B10007C01DEDEDA94DD2021F0EA94EF2899F78B
:107B200004C0EA94EF2809F08CC095B181E0892760
:107B300085B9E0E0F8E783E0E058F1098093570069
:107B4000E89507B600FCFDCF3097B1F7A895E12C7A
:107B5000F12C80E090E0A4E87A2EFE0131966F01CE
:107B6000B3E08B2EBB24B39425E0922E31E1A32EFB
:107B7000CF55DF4F28813981C15AD040E216F30634
:107B800008F061C0F601272D11922A95E9F7F3E07C
:107B90006F2EB601C80144DF2C019ADE6A9466207C
:107BA00021F04A944528A9F704C04A94452809F0D1
:107BB00045C0CF57DF4F2881C158D04030E0322F29
:107BC0002227CE57DF4F8881C258D040282BF90199
:107BD00080925700E89507B600FCFDCFA0E0B0E02A
:107BE000C601FC01608102962D01420E531EAC01BC
:107BF00041505109FA01408150E0542F4427460F6B
:107C0000511DF2010A01B0925700E8951124129615
:107C1000A038B10531F7F90190925700E89507B601
:107C200000FCFDCFA0925700E89585B18B2585B962
:107C3000FFEFEF1AFF0A81E090E09ACF82E090E038
:107C400002C080E090E0CC55DF4F0FB6F894DEBF65
:107C50000FBECDBFDF91CF911F910F91FF90EF909D
:107C6000DF90CF90BF90AF909F908F907F906F905C
:0A7C70005F904F900895F894FFCF45
:067C7A0000000000833C45
:040000030000780081
:00000001FF
