:1078000033C0000044C0000042C0000040C000007F
:107810003EC000003CC000003AC0000038C000007C
:1078200036C0000034C0000032C0000030C000008C
:107830002EC000002CC000002AC0000028C000009C
:1078400026C0000024C0000022C0000020C00000AC
:107850001EC000001CC000001AC0000018C00000BC
:1078600016C0000014C0000011241FBECFEFD8E0E6
:10787000DEBFCDBF11E0A0E0B1E0E8E2FEE702C06C
:1078800005900D92A630B107D9F7EDD1CBC2B8CF94
:10789000239A2B9A2498089545E450E060E070E024
:1078A00020E490E01C99FECF0CD01C99FBCF0BD0AC
:1078B0001C9901C001C0806806D08695269539F0D4
:1078C000F7CF92E201C0942F9A95F1F708950895A9
:1078D0004EE350E060E070E020E098E02B980DD09F
:1078E000282F817011F02B9A02C02B980000822F54
:1078F000869503D09A95A1F704C0242F2A95F1F715
:1079000008952B9AFACFAF92BF92CF92DF92EF9267
:10791000FF920F931F93CF93DF93D9010296A42E6A
:10792000B12CFB0100E010E09801EF01C61BD70B62
:10793000CA15DB05B8F4C191DC2FD027012F122F17
:10794000232F33277C0144E0D49FE00CF11C112449
:10795000E701C880D980EA80FB800C251D252E25F3
:107960003F25E3CF81E04D915D916D917C910417AE
:1079700015072607370709F080E0DF91CF911F91A7
:107980000F91FF90EF90DF90CF90BF90AF90089550
:10799000CF92DF92EF92FF920F931F93FC0184E04E
:1079A00091E08193919300E010E09801B901A80162
:1079B00088E040FD09C0A0E2CA2EA3E8DA2EA8EBB9
:1079C000EA2EADEEFA2E03C0C12CD12C76017695AD
:1079D0006795579547954C255D256E257F258150E8
:1079E00041F7709541935193619371930F5F1F4FCE
:1079F0002F4F3F4F011581E0180721053105B1F6E2
:107A00001F910F91FF90EF90DF90CF900895CF924C
:107A1000DF92EF92FF921F93CF93DF93EB0186EFFC
:107A200093E0EAD1C82ED12CE12CF12CFC2CEE24D1
:107A3000DD24CC2487EF93E0DFD1E82A88EF93E0C0
:107A4000DBD1182F89EF93E0D7D1B701A601482BDE
:107A5000512B07B600FCFDCF4F3F8FEF580768074B
:107A6000780761F081E0C880D980EA80FB804C15FE
:107A70005D056E057F0518F080E001C081E0DF91B3
:107A8000CF911F91FF90EF90DF90CF900895CF930B
:107A9000DF93FB01E058FF4F808190E0982F88270B
:107AA00031962081822B23E0FC0120935700E8953A
:107AB00007B600FCFDCFDB0140E050E061E07C91C7
:107AC0001296FA01E80FF91FED012197288130E0A5
:107AD000322F2227270F311D090160935700E895A7
:107AE00011244E5F5F4F4038510549F725E0FC01F6
:107AF00020935700E89507B600FCFDCF81E1809305
:107B00005700E895DF91CF910895CF92DF92EF92E1
:107B1000FF920F931F93CF93DF9300D0CDB7DEB7C3
:107B20008C016B017B0182E2E80EF11C69837A8390
:107B3000B3DED6018D936D0169817A81AE15BF05E3
:107B4000A9F7D801ED91FC919B01225E3F4F019076
:107B5000F081E02D4EE1C8010995882319F081E0FC
:107B600090E002C082E090E00F900F90DF91CF9103
:107B70001F910F91FF90EF90DF90CF900895CF92DB
:107B8000DF92EF92FF921F93CF93DF937C016B0103
:107B900013E0B601C701B9DFEC019ADE115019F00C
:107BA000C130D105B1F7CE01DF91CF911F91FF9088
:107BB000EF90DF90CF900895CF92DF92EF92FF92F7
:107BC0000F931F93CF93DF9300D0CDB7DEB78C0117
:107BD0006B017B0186E8E80EF11C69837A835CDE29
:107BE000D6018D936D0169817A81AE15BF05A9F724
:107BF000D801ED91FC919B012E573F4F0190F081F0
:107C0000E02D42E8C8010995882319F081E090E051
:107C100002C082E090E00F900F90DF91CF911F9112
:107C20000F91FF90EF90DF90CF900895CF92DF9269
:107C3000EF92FF921F93CF93DF937C016B0113E0D0
:107C4000B601C701B9DFEC0143DE115019F0C130B4
:107C5000D105B1F7CE01DF91CF911F91FF90EF9049
:107C6000DF90CF900895CF93DF93CDB7DEB7C250AA
:107C7000D4400FB6F894DEBF0FBECDBFA89514BE9A
:107C8000E0E6F0E08081886180831082F894289A91
:107C900081E084B92898CE0101967ADECE01019662
:107CA0000CD080E090E0CE5FDB4F0FB6F894DEBFE3
:107CB0000FBECDBFDF91CF910895AF92BF92CF920B
:107CC000DF92EF92FF920F931F93CF93DF93CDB785
:107CD000DEB7C85AD1090FB6F894DEBF0FBECDBFCC
:107CE0007C01BE0169577F4F4ADF019709F06FC0E1
:107CF00067E870E06C0F7D1F6C5E7F4FC70187DE09
:107D0000882309F464C0E0E0F8E783E0E058F10973
:107D100080935700E89507B600FCFDCF3097B1F788
:107D2000A895C12CD12C20E030E046E8B42E8E017D
:107D30000F5F1F4FAA24A394CD55DF4F88819981EF
:107D4000C35AD040C816D906C8F4F8018B2D119239
:107D50008A95E9F7B801C70169DF019761F4B801B5
:107D6000C70195DE85B18A2585B9EFEFCE1ADE0A07
:107D700021E030E0E1CF22E030E02BC021303105BE
:107D800041F5C556DF4FC880D980EA80FB80CB59CA
:107D9000D0406F2D77278827992786EF93E034D03E
:107DA000B7018827992787EF93E02ED099278F2D49
:107DB0007E2D6D2D88EF93E027D06C2D89EF93E019
:107DC00023D007B600FCFDCF21E030E002C020E068
:107DD00030E0C901C855DF4F0FB6F894DEBF0FBEC3
:107DE000CDBFDF91CF911F910F91FF90EF90DF906A
:107DF000CF90BF90AF900895F999FECF92BD81BD0D
:107E0000F89A992780B50895262FF999FECF1FBAC1
:107E100092BD81BD20BD0FB6F894FA9AF99A0FBEB3
:087E200001960895F894FFCFCC
:067E280000000000833C95
:040000030000780081
:00000001FF
