:100000000C9438000C944D000C944D000C944D0051
:100010000C944D000C944D000C944D000C944D002C
:100020000C944D000C944D000C944D000C944D001C
:100030000C944D000C944D000C944D000C944D000C
:100040000C944D000C944D000C944D000C944D00FC
:100050000C944D000C944D000C944D000C944D00EC
:100060000C944D000C944D000C944D000C944D00DC
:1000700011241FBECFEFD0E1DEBFCDBF11E0A0E065
:10008000B1E0EAEEF0E002C005900D92A038B107B1
:10009000D9F70E944F000C9473000C940000CF938A
:1000A000DF9300D000D0CDB7DEB784E084B9299AC1
:1000B0001C821B828B819C8188399A4330F48B810E
:1000C0009C8101969C838B83F5CF29981A82198293
:1000D00089819A8188399A4350F789819A8101965A
:0A00E0009A838983F5CFF894FFCFCF
:1000EA00DCF4357695D222487FE0E5794239BEBC08
:1000FA009976F8EBD027F048EC55FE9D445616A3A6
:10010A00235402C72946C35E7AB6E9237E30103FDC
:10011A00D1E2749A21487D42E3A1610BA56DBEC26A
:10012A005E5832EC1821DDC9DE3BE6712E5CC95FF0
:10013A006905C55B89E5275F524E0A91C0594F4E42
:10014A00E9860FDB493347FA2D5045A62F1657F398
:10015A002BA486FABF76AECEB8071C4E8A92E05C14
:00000001FF
