:100000000C9434000C9449000C9449000C94490061
:100010000C9449000C9449000C9449000C9449003C
:100020000C9449000C9449000C9449000C9449002C
:100030000C9449000C9449000C9449000C9449001C
:100040000C9449000C9449000C9449000C9449000C
:100050000C9449000C9449000C9449000C944900FC
:100060000C9449000C94490011241FBECFEFD8E036
:10007000DEBFCDBF11E0A0E0B1E0E2EEF0E002C0F3
:1000800005900D92A038B107D9F70E944B000C944F
:100090006F000C940000CF93DF9300D000D0CDB759
:1000A000DEB784E084B9299A1C821B828B819C81F3
:1000B00088399A4330F48B819C8101969C838B8391
:1000C000F5CF29981A82198289819A8188399A43B1
:1000D00050F789819A8101969A838983F5CFF894A4
:0200E000FFCF50
:1000E200DCF4357695D222487FE0E5794239BEBC10
:1000F2009976F8EBD027F048EC55FE9D445616A3AE
:10010200235402C72946C35E7AB6E9237E30103FE4
:10011200D1E2749A21487D42E3A1610BA56DBEC272
:100122005E5832EC1821DDC9DE3BE6712E5CC95FF8
:100132006905C55B89E5275F524E0A91C0594F4E4A
:10014200E9860FDB493347FA2D5045A62F1657F3A0
:100152002BA486FABF76AECEB8071C4E8A92E05C1C
:00000001FF
